{
  "contractName": "ACcoin",
  "abi": [
    {
      "constant": true,
      "inputs": [],
      "name": "name",
      "outputs": [
        {
          "name": "",
          "type": "string"
        }
      ],
      "payable": false,
      "stateMutability": "view",
      "type": "function"
    },
    {
      "constant": true,
      "inputs": [],
      "name": "price_3",
      "outputs": [
        {
          "name": "",
          "type": "uint256"
        }
      ],
      "payable": false,
      "stateMutability": "view",
      "type": "function"
    },
    {
      "constant": true,
      "inputs": [],
      "name": "currentState",
      "outputs": [
        {
          "name": "",
          "type": "uint8"
        }
      ],
      "payable": false,
      "stateMutability": "view",
      "type": "function"
    },
    {
      "constant": true,
      "inputs": [],
      "name": "totalSupply",
      "outputs": [
        {
          "name": "",
          "type": "uint256"
        }
      ],
      "payable": false,
      "stateMutability": "view",
      "type": "function"
    },
    {
      "constant": true,
      "inputs": [],
      "name": "decimals",
      "outputs": [
        {
          "name": "",
          "type": "uint256"
        }
      ],
      "payable": false,
      "stateMutability": "view",
      "type": "function"
    },
    {
      "constant": true,
      "inputs": [],
      "name": "tokensold",
      "outputs": [
        {
          "name": "",
          "type": "uint256"
        }
      ],
      "payable": false,
      "stateMutability": "view",
      "type": "function"
    },
    {
      "constant": true,
      "inputs": [],
      "name": "teamAC",
      "outputs": [
        {
          "name": "",
          "type": "uint256"
        }
      ],
      "payable": false,
      "stateMutability": "view",
      "type": "function"
    },
    {
      "constant": true,
      "inputs": [
        {
          "name": "who",
          "type": "address"
        }
      ],
      "name": "balanceOf",
      "outputs": [
        {
          "name": "",
          "type": "uint256"
        }
      ],
      "payable": false,
      "stateMutability": "view",
      "type": "function"
    },
    {
      "constant": false,
      "inputs": [],
      "name": "renounceOwnership",
      "outputs": [],
      "payable": false,
      "stateMutability": "nonpayable",
      "type": "function"
    },
    {
      "constant": true,
      "inputs": [],
      "name": "uintOfEth",
      "outputs": [
        {
          "name": "",
          "type": "uint256"
        }
      ],
      "payable": false,
      "stateMutability": "view",
      "type": "function"
    },
    {
      "constant": true,
      "inputs": [],
      "name": "owner",
      "outputs": [
        {
          "name": "",
          "type": "address"
        }
      ],
      "payable": false,
      "stateMutability": "view",
      "type": "function"
    },
    {
      "constant": true,
      "inputs": [],
      "name": "teamACcoin",
      "outputs": [
        {
          "name": "",
          "type": "address"
        }
      ],
      "payable": false,
      "stateMutability": "view",
      "type": "function"
    },
    {
      "constant": true,
      "inputs": [],
      "name": "symbol",
      "outputs": [
        {
          "name": "",
          "type": "string"
        }
      ],
      "payable": false,
      "stateMutability": "view",
      "type": "function"
    },
    {
      "constant": true,
      "inputs": [],
      "name": "price_2",
      "outputs": [
        {
          "name": "",
          "type": "uint256"
        }
      ],
      "payable": false,
      "stateMutability": "view",
      "type": "function"
    },
    {
      "constant": true,
      "inputs": [
        {
          "name": "owner",
          "type": "address"
        },
        {
          "name": "spender",
          "type": "address"
        }
      ],
      "name": "allowance",
      "outputs": [
        {
          "name": "",
          "type": "uint256"
        }
      ],
      "payable": false,
      "stateMutability": "view",
      "type": "function"
    },
    {
      "constant": true,
      "inputs": [],
      "name": "price_1",
      "outputs": [
        {
          "name": "",
          "type": "uint256"
        }
      ],
      "payable": false,
      "stateMutability": "view",
      "type": "function"
    },
    {
      "constant": false,
      "inputs": [
        {
          "name": "_newOwner",
          "type": "address"
        }
      ],
      "name": "transferOwnership",
      "outputs": [],
      "payable": false,
      "stateMutability": "nonpayable",
      "type": "function"
    },
    {
      "inputs": [],
      "payable": false,
      "stateMutability": "nonpayable",
      "type": "constructor"
    },
    {
      "payable": true,
      "stateMutability": "payable",
      "type": "fallback"
    },
    {
      "anonymous": false,
      "inputs": [
        {
          "indexed": false,
          "name": "owner",
          "type": "address"
        },
        {
          "indexed": false,
          "name": "value",
          "type": "uint256"
        }
      ],
      "name": "buy",
      "type": "event"
    },
    {
      "anonymous": false,
      "inputs": [
        {
          "indexed": true,
          "name": "previousOwner",
          "type": "address"
        }
      ],
      "name": "OwnershipRenounced",
      "type": "event"
    },
    {
      "anonymous": false,
      "inputs": [
        {
          "indexed": true,
          "name": "previousOwner",
          "type": "address"
        },
        {
          "indexed": true,
          "name": "newOwner",
          "type": "address"
        }
      ],
      "name": "OwnershipTransferred",
      "type": "event"
    },
    {
      "anonymous": false,
      "inputs": [
        {
          "indexed": true,
          "name": "owner",
          "type": "address"
        },
        {
          "indexed": true,
          "name": "spender",
          "type": "address"
        },
        {
          "indexed": false,
          "name": "value",
          "type": "uint256"
        }
      ],
      "name": "Approval",
      "type": "event"
    },
    {
      "anonymous": false,
      "inputs": [
        {
          "indexed": true,
          "name": "from",
          "type": "address"
        },
        {
          "indexed": true,
          "name": "to",
          "type": "address"
        },
        {
          "indexed": false,
          "name": "value",
          "type": "uint256"
        }
      ],
      "name": "Transfer",
      "type": "event"
    },
    {
      "constant": false,
      "inputs": [],
      "name": "buytoken",
      "outputs": [],
      "payable": true,
      "stateMutability": "payable",
      "type": "function"
    },
    {
      "constant": true,
      "inputs": [],
      "name": "getprice",
      "outputs": [
        {
          "name": "",
          "type": "uint256"
        }
      ],
      "payable": false,
      "stateMutability": "view",
      "type": "function"
    },
    {
      "constant": false,
      "inputs": [
        {
          "name": "_nextState",
          "type": "uint8"
        }
      ],
      "name": "setState",
      "outputs": [],
      "payable": false,
      "stateMutability": "nonpayable",
      "type": "function"
    },
    {
      "constant": false,
      "inputs": [],
      "name": "withdrawEther",
      "outputs": [],
      "payable": false,
      "stateMutability": "nonpayable",
      "type": "function"
    },
    {
      "constant": true,
      "inputs": [],
      "name": "totalsupply",
      "outputs": [
        {
          "name": "",
          "type": "uint256"
        }
      ],
      "payable": false,
      "stateMutability": "view",
      "type": "function"
    },
    {
      "constant": false,
      "inputs": [
        {
          "name": "to",
          "type": "address"
        },
        {
          "name": "value",
          "type": "uint256"
        }
      ],
      "name": "transfer",
      "outputs": [
        {
          "name": "",
          "type": "bool"
        }
      ],
      "payable": false,
      "stateMutability": "nonpayable",
      "type": "function"
    },
    {
      "constant": false,
      "inputs": [
        {
          "name": "from",
          "type": "address"
        },
        {
          "name": "to",
          "type": "address"
        },
        {
          "name": "value",
          "type": "uint256"
        }
      ],
      "name": "transferFrom",
      "outputs": [
        {
          "name": "",
          "type": "bool"
        }
      ],
      "payable": false,
      "stateMutability": "nonpayable",
      "type": "function"
    },
    {
      "constant": false,
      "inputs": [
        {
          "name": "spender",
          "type": "address"
        },
        {
          "name": "value",
          "type": "uint256"
        }
      ],
      "name": "approve",
      "outputs": [
        {
          "name": "",
          "type": "bool"
        }
      ],
      "payable": false,
      "stateMutability": "nonpayable",
      "type": "function"
    }
  ],
  "bytecode": "0x60806040526000805561012c60045562030d406005556103e86006556101f460075561012c60085560c86009556000600a556000600b60006101000a81548160ff021916908360038111156200005157fe5b02179055506000600b60016101000a81548160ff0219169083151502179055503480156200007e57600080fd5b5033600360006101000a81548173ffffffffffffffffffffffffffffffffffffffff021916908373ffffffffffffffffffffffffffffffffffffffff160217905550620000ed670de0b6b3a7640000600554620001a064010000000002620011d9179091906401000000009004565b60058190555062000143670de0b6b3a7640000620001266064600954620001a064010000000002620011d9179091906401000000009004565b620001a064010000000002620011d9179091906401000000009004565b6001600073d0f1bbd349e06cb64e24ffef6702dd124dbdf59673ffffffffffffffffffffffffffffffffffffffff1673ffffffffffffffffffffffffffffffffffffffff16815260200190815260200160002081905550620001dc565b600080831415620001b55760009050620001d6565b8183029050818382811515620001c757fe5b04141515620001d257fe5b8090505b92915050565b6119fd80620001ec6000396000f300608060405260043610610149576000357c0100000000000000000000000000000000000000000000000000000000900463ffffffff16806306fdde0314610153578063095ea7b3146101e35780630adf9acf146102485780630c3f6acf146102735780630fcb5984146102ac57806318160ddd146102d757806323b872dd14610302578063313ce5671461038757806338c40595146103b257806356de96db146103dd5780635773ac1f1461040d57806370a0823114610438578063715018a61461048f57806372dd529b146104a65780637362377b146104d157806377c3c7ac146104e85780638da5cb5b14610513578063946cc6451461056a57806395d89b41146105c1578063a9059cbb14610651578063aad519c1146106b6578063dca141f8146106c0578063dd62ed3e146106eb578063ee14908d14610762578063f2fde38b1461078d575b6101516107d0565b005b34801561015f57600080fd5b506101686109a6565b6040518080602001828103825283818151815260200191508051906020019080838360005b838110156101a857808201518184015260208101905061018d565b50505050905090810190601f1680156101d55780820380516001836020036101000a031916815260200191505b509250505060405180910390f35b3480156101ef57600080fd5b5061022e600480360381019080803573ffffffffffffffffffffffffffffffffffffffff169060200190929190803590602001909291905050506109df565b604051808215151515815260200191505060405180910390f35b34801561025457600080fd5b5061025d610a15565b6040518082815260200191505060405180910390f35b34801561027f57600080fd5b50610288610a1b565b6040518082600381111561029857fe5b60ff16815260200191505060405180910390f35b3480156102b857600080fd5b506102c1610a2e565b6040518082815260200191505060405180910390f35b3480156102e357600080fd5b506102ec610b6b565b6040518082815260200191505060405180910390f35b34801561030e57600080fd5b5061036d600480360381019080803573ffffffffffffffffffffffffffffffffffffffff169060200190929190803573ffffffffffffffffffffffffffffffffffffffff16906020019092919080359060200190929190505050610b74565b604051808215151515815260200191505060405180910390f35b34801561039357600080fd5b5061039c610bac565b6040518082815260200191505060405180910390f35b3480156103be57600080fd5b506103c7610bb8565b6040518082815260200191505060405180910390f35b3480156103e957600080fd5b5061040b600480360381019080803560ff169060200190929190505050610bbe565b005b34801561041957600080fd5b50610422610ddc565b6040518082815260200191505060405180910390f35b34801561044457600080fd5b50610479600480360381019080803573ffffffffffffffffffffffffffffffffffffffff169060200190929190505050610de2565b6040518082815260200191505060405180910390f35b34801561049b57600080fd5b506104a4610e2b565b005b3480156104b257600080fd5b506104bb610f30565b6040518082815260200191505060405180910390f35b3480156104dd57600080fd5b506104e6610f3a565b005b3480156104f457600080fd5b506104fd61102b565b6040518082815260200191505060405180910390f35b34801561051f57600080fd5b50610528611031565b604051808273ffffffffffffffffffffffffffffffffffffffff1673ffffffffffffffffffffffffffffffffffffffff16815260200191505060405180910390f35b34801561057657600080fd5b5061057f611057565b604051808273ffffffffffffffffffffffffffffffffffffffff1673ffffffffffffffffffffffffffffffffffffffff16815260200191505060405180910390f35b3480156105cd57600080fd5b506105d661106f565b6040518080602001828103825283818151815260200191508051906020019080838360005b838110156106165780820151818401526020810190506105fb565b50505050905090810190601f1680156106435780820380516001836020036101000a031916815260200191505b509250505060405180910390f35b34801561065d57600080fd5b5061069c600480360381019080803573ffffffffffffffffffffffffffffffffffffffff169060200190929190803590602001909291905050506110a8565b604051808215151515815260200191505060405180910390f35b6106be6107d0565b005b3480156106cc57600080fd5b506106d56110de565b6040518082815260200191505060405180910390f35b3480156106f757600080fd5b5061074c600480360381019080803573ffffffffffffffffffffffffffffffffffffffff169060200190929190803573ffffffffffffffffffffffffffffffffffffffff1690602001909291905050506110e4565b6040518082815260200191505060405180910390f35b34801561076e57600080fd5b5061077761116b565b6040518082815260200191505060405180910390f35b34801561079957600080fd5b506107ce600480360381019080803573ffffffffffffffffffffffffffffffffffffffff169060200190929190505050611171565b005b6000806002600b60009054906101000a900460ff1660038111156107f057fe5b8160038111156107fc57fe5b14151561080857600080fd5b610810610a2e565b92506000831415610826576108256003610bbe565b5b6000831415151561083657600080fd5b662386f26fc10000341015151561084c57600080fd5b61085f83346111d990919063ffffffff16565b915060055461087983600a5461121190919063ffffffff16565b1115151561088657600080fd5b61089b82600a5461121190919063ffffffff16565b600a819055506108f382600160003373ffffffffffffffffffffffffffffffffffffffff1673ffffffffffffffffffffffffffffffffffffffff1681526020019081526020016000205461121190919063ffffffff16565b600160003373ffffffffffffffffffffffffffffffffffffffff1673ffffffffffffffffffffffffffffffffffffffff168152602001908152602001600020819055507fcce7ec13039019daeb7946d483b165f6b38de084683a31b06edb866b7a8357693383604051808373ffffffffffffffffffffffffffffffffffffffff1673ffffffffffffffffffffffffffffffffffffffff1681526020018281526020019250505060405180910390a1505050565b6040805190810160405280600b81526020017f416e67656c6f20636f696e00000000000000000000000000000000000000000081525081565b600060011515600b60019054906101000a900460ff161515141515610a0357600080fd5b610a0d838361122d565b905092915050565b60085481565b600b60009054906101000a900460ff1681565b6000806000806002600b60009054906101000a900460ff166003811115610a5157fe5b816003811115610a5d57fe5b141515610a6957600080fd5b610a99670de0b6b3a7640000610a8b60646006546111d990919063ffffffff16565b6111d990919063ffffffff16565b9350610add610ace670de0b6b3a7640000610ac060646007546111d990919063ffffffff16565b6111d990919063ffffffff16565b8561121190919063ffffffff16565b9250610b21610b12670de0b6b3a7640000610b0460646008546111d990919063ffffffff16565b6111d990919063ffffffff16565b8461121190919063ffffffff16565b915083600a541015610b37576006549450610b64565b82600a541015610b4b576007549450610b64565b81600a541015610b5f576008549450610b64565b600094505b5050505090565b60008054905090565b600060011515600b60019054906101000a900460ff161515141515610b9857600080fd5b610ba38484846113bb565b90509392505050565b670de0b6b3a764000081565b600a5481565b600080600360009054906101000a900473ffffffffffffffffffffffffffffffffffffffff1673ffffffffffffffffffffffffffffffffffffffff163373ffffffffffffffffffffffffffffffffffffffff16141515610c1d57600080fd5b600380811115610c2957fe5b600b60009054906101000a900460ff166003811115610c4457fe5b14151515610c5157600080fd5b82600b60006101000a81548160ff02191690836003811115610c6f57fe5b0217905550600380811115610c8057fe5b600b60009054906101000a900460ff166003811115610c9b57fe5b1415610dd757610ce5600a54610cd7670de0b6b3a7640000610cc960646009546111d990919063ffffffff16565b6111d990919063ffffffff16565b61121190919063ffffffff16565b9150610cfc8260055461156d90919063ffffffff16565b9050610d64816001600073d0f1bbd349e06cb64e24ffef6702dd124dbdf59673ffffffffffffffffffffffffffffffffffffffff1673ffffffffffffffffffffffffffffffffffffffff1681526020019081526020016000205461121190919063ffffffff16565b6001600073d0f1bbd349e06cb64e24ffef6702dd124dbdf59673ffffffffffffffffffffffffffffffffffffffff1673ffffffffffffffffffffffffffffffffffffffff168152602001908152602001600020819055506001600b60016101000a81548160ff0219169083151502179055505b505050565b60095481565b6000600160008373ffffffffffffffffffffffffffffffffffffffff1673ffffffffffffffffffffffffffffffffffffffff168152602001908152602001600020549050919050565b600360009054906101000a900473ffffffffffffffffffffffffffffffffffffffff1673ffffffffffffffffffffffffffffffffffffffff163373ffffffffffffffffffffffffffffffffffffffff16141515610e8757600080fd5b600360009054906101000a900473ffffffffffffffffffffffffffffffffffffffff1673ffffffffffffffffffffffffffffffffffffffff167ff8df31144d9c2f0f6b59d69b8b98abd5459d07f2742c4df920b25aae33c6482060405160405180910390a26000600360006101000a81548173ffffffffffffffffffffffffffffffffffffffff021916908373ffffffffffffffffffffffffffffffffffffffff160217905550565b6000600554905090565b600360009054906101000a900473ffffffffffffffffffffffffffffffffffffffff1673ffffffffffffffffffffffffffffffffffffffff163373ffffffffffffffffffffffffffffffffffffffff16141515610f9657600080fd5b60003073ffffffffffffffffffffffffffffffffffffffff163111156110295773d0f1bbd349e06cb64e24ffef6702dd124dbdf59673ffffffffffffffffffffffffffffffffffffffff166108fc3073ffffffffffffffffffffffffffffffffffffffff16319081150290604051600060405180830381858888f19350505050158015611027573d6000803e3d6000fd5b505b565b60045481565b600360009054906101000a900473ffffffffffffffffffffffffffffffffffffffff1681565b73d0f1bbd349e06cb64e24ffef6702dd124dbdf59681565b6040805190810160405280600281526020017f414300000000000000000000000000000000000000000000000000000000000081525081565b600060011515600b60019054906101000a900460ff1615151415156110cc57600080fd5b6110d68383611586565b905092915050565b60075481565b6000600260008473ffffffffffffffffffffffffffffffffffffffff1673ffffffffffffffffffffffffffffffffffffffff16815260200190815260200160002060008373ffffffffffffffffffffffffffffffffffffffff1673ffffffffffffffffffffffffffffffffffffffff16815260200190815260200160002054905092915050565b60065481565b600360009054906101000a900473ffffffffffffffffffffffffffffffffffffffff1673ffffffffffffffffffffffffffffffffffffffff163373ffffffffffffffffffffffffffffffffffffffff161415156111cd57600080fd5b6111d68161159d565b50565b6000808314156111ec576000905061120b565b81830290508183828115156111fd57fe5b0414151561120757fe5b8090505b92915050565b6000818301905082811015151561122457fe5b80905092915050565b6000808211151561123d57600080fd5b6112cc82600260003373ffffffffffffffffffffffffffffffffffffffff1673ffffffffffffffffffffffffffffffffffffffff16815260200190815260200160002060008673ffffffffffffffffffffffffffffffffffffffff1673ffffffffffffffffffffffffffffffffffffffff1681526020019081526020016000205461121190919063ffffffff16565b600260003373ffffffffffffffffffffffffffffffffffffffff1673ffffffffffffffffffffffffffffffffffffffff16815260200190815260200160002060008573ffffffffffffffffffffffffffffffffffffffff1673ffffffffffffffffffffffffffffffffffffffff168152602001908152602001600020819055508273ffffffffffffffffffffffffffffffffffffffff163373ffffffffffffffffffffffffffffffffffffffff167f8c5be1e5ebec7d5bd14f71427d1e84f3dd0314c0f7b2291e5b200ac8c7c3b925846040518082815260200191505060405180910390a36001905092915050565b600081600260003373ffffffffffffffffffffffffffffffffffffffff1673ffffffffffffffffffffffffffffffffffffffff16815260200190815260200160002060008673ffffffffffffffffffffffffffffffffffffffff1673ffffffffffffffffffffffffffffffffffffffff168152602001908152602001600020541015151561144857600080fd5b6114d782600260003373ffffffffffffffffffffffffffffffffffffffff1673ffffffffffffffffffffffffffffffffffffffff16815260200190815260200160002060008773ffffffffffffffffffffffffffffffffffffffff1673ffffffffffffffffffffffffffffffffffffffff1681526020019081526020016000205461156d90919063ffffffff16565b600260003373ffffffffffffffffffffffffffffffffffffffff1673ffffffffffffffffffffffffffffffffffffffff16815260200190815260200160002060008673ffffffffffffffffffffffffffffffffffffffff1673ffffffffffffffffffffffffffffffffffffffff16815260200190815260200160002081905550611562848484611699565b600190509392505050565b600082821115151561157b57fe5b818303905092915050565b6000611593338484611699565b6001905092915050565b600073ffffffffffffffffffffffffffffffffffffffff168173ffffffffffffffffffffffffffffffffffffffff16141515156115d957600080fd5b8073ffffffffffffffffffffffffffffffffffffffff16600360009054906101000a900473ffffffffffffffffffffffffffffffffffffffff1673ffffffffffffffffffffffffffffffffffffffff167f8be0079c531659141344cd1fd0a4f28419497f9722a3daafe3b4186f6b6457e060405160405180910390a380600360006101000a81548173ffffffffffffffffffffffffffffffffffffffff021916908373ffffffffffffffffffffffffffffffffffffffff16021790555050565b6000808373ffffffffffffffffffffffffffffffffffffffff16141515156116c057600080fd5b81600160008673ffffffffffffffffffffffffffffffffffffffff1673ffffffffffffffffffffffffffffffffffffffff168152602001908152602001600020541015151561170e57600080fd5b61179f600160008573ffffffffffffffffffffffffffffffffffffffff1673ffffffffffffffffffffffffffffffffffffffff16815260200190815260200160002054600160008773ffffffffffffffffffffffffffffffffffffffff1673ffffffffffffffffffffffffffffffffffffffff1681526020019081526020016000205461121190919063ffffffff16565b90506117f382600160008773ffffffffffffffffffffffffffffffffffffffff1673ffffffffffffffffffffffffffffffffffffffff1681526020019081526020016000205461156d90919063ffffffff16565b600160008673ffffffffffffffffffffffffffffffffffffffff1673ffffffffffffffffffffffffffffffffffffffff1681526020019081526020016000208190555061188882600160008673ffffffffffffffffffffffffffffffffffffffff1673ffffffffffffffffffffffffffffffffffffffff1681526020019081526020016000205461121190919063ffffffff16565b600160008573ffffffffffffffffffffffffffffffffffffffff1673ffffffffffffffffffffffffffffffffffffffff168152602001908152602001600020819055508061195d600160008673ffffffffffffffffffffffffffffffffffffffff1673ffffffffffffffffffffffffffffffffffffffff16815260200190815260200160002054600160008873ffffffffffffffffffffffffffffffffffffffff1673ffffffffffffffffffffffffffffffffffffffff1681526020019081526020016000205461121190919063ffffffff16565b14151561196657fe5b8273ffffffffffffffffffffffffffffffffffffffff168473ffffffffffffffffffffffffffffffffffffffff167fddf252ad1be2c89b69c2b068fc378daa952ba7f163c4a11628f55a4df523b3ef846040518082815260200191505060405180910390a3505050505600a165627a7a723058206f86813c011dcc2e45f3d1c209e95931eab246721e177c74378f38571409f1c90029",
  "source": "pragma solidity ^0.4.24;\r\n\r\nimport \"./safemath.sol\";\r\nimport \"./Erc20.sol\";\r\nimport \"./Ownable.sol\";\r\n\r\ncontract ACcoin is Erc20, Ownable {\r\n    \r\n\r\n    string public constant name = \"Angelo coin\";\r\n    string public constant symbol = \"AC\";\r\n    uint public constant decimals = (1 ether/1 wei); \r\n    uint256 public uintOfEth = 300;\r\n    uint256 public totalsupply=200000;    //total supply equals 200*1000AC\r\n    uint256 public price_1 = 1000; //1eth can buy 1000AC, in this tier received 100 ether\r\n    uint256 public price_2 = 500;  //1eth can buy 500AC, in this tier received 100 ether\r\n    uint256 public price_3 = 300;  //1eth can buy 300AC, in this tier received 100 ether\r\n    uint256 public teamAC = 200;   //ACcoin team can get 200*100 ACcoin\r\n\r\n    \r\n    uint256 public tokensold = 0;  //record the token sold \r\n    using SafeMath for uint256;\r\n    \r\n    address public constant  teamACcoin =     0xd0f1bbd349e06cb64e24ffef6702dd124dbdf596;\r\n    enum State{\r\n       Init,\r\n       Paused,\r\n\r\n       ICORunning,\r\n       ICOFinished\r\n    }\r\n\r\n    State public currentState = State.Init;\r\n    bool enableTransfer = false;\r\n    \r\n    modifier onlyInState(State state){\r\n        require(state == currentState);\r\n        _;\r\n    }\r\n\r\n    event buy(address owner, uint256 value);\r\n    \r\n    \r\n    constructor() public {\r\n        totalsupply = totalsupply.mul(decimals);\r\n        balanceOf[teamACcoin] = teamAC.mul(100).mul(decimals);//Team ACcoin can get 200*1000 ACcoin\r\n\r\n    }\r\n\r\n    function buytoken() public payable onlyInState(State.ICORunning){\r\n        uint256 price = getprice();\r\n        if (price == 0){\r\n            setState(State.ICOFinished);\r\n        }\r\n        require (price != 0);  //token are totally sold, ICO are finished\r\n        require(msg.value >= 0.01 ether);\r\n        uint256 newtoken = (msg.value).mul(price);\r\n        require(tokensold.add(newtoken) <= totalsupply);\r\n        tokensold = tokensold.add(newtoken);\r\n        balanceOf[msg.sender] = balanceOf[msg.sender].add(newtoken);\r\n        emit buy(msg.sender,newtoken);\r\n    }\r\n\r\n    function getprice() public view onlyInState(State.ICORunning) returns (uint256)  {\r\n        uint256 threshold_1 = price_1.mul(100).mul(decimals);\r\n        uint256 threshold_2 = threshold_1.add(price_2.mul(100).mul(decimals));\r\n        uint256 threshold_3 = threshold_2.add(price_3.mul(100).mul(decimals));\r\n        \r\n        if (tokensold < threshold_1)\r\n            return price_1;\r\n        if (tokensold < threshold_2)\r\n            return price_2;\r\n        if (tokensold < threshold_3)\r\n            return price_3;\r\n        else\r\n            return 0;\r\n        \r\n            \r\n\r\n    }\r\n\r\n\r\n    function setState(State _nextState) public onlyOwner() {\r\n        require (currentState != State.ICOFinished);\r\n        currentState = _nextState;\r\n\r\n        if (currentState == State.ICOFinished ){\r\n            uint256 allocatedToken = (teamAC.mul(100).mul(decimals)).add(tokensold);\r\n            uint256 tokenRemain = totalsupply.sub(allocatedToken); // tokenRemain = token_not_sold + teamAC can get = totalsupply - tokensold\r\n            balanceOf[teamACcoin] = balanceOf[teamACcoin].add(tokenRemain);\r\n            enableTransfer = true;\r\n        }\r\n        \r\n    }\r\n\r\n\r\n    function withdrawEther() public onlyOwner() {\r\n        if (this.balance > 0){\r\n            teamACcoin.transfer(this.balance);\r\n        }\r\n    }\r\n\r\n    function totalsupply() public view returns (uint256) {\r\n        return (totalsupply);\r\n    }\r\n\r\n    function transfer(address to, uint256 value) public returns (bool) {\r\n        require(enableTransfer == true);\r\n        return super.transfer(to,value);\r\n    }\r\n\r\n    function transferFrom(address from, address to, uint256 value) public returns (bool) {\r\n        require (enableTransfer == true);\r\n        return super.transferFrom(from,to,value);\r\n    }\r\n\r\n    function approve(address spender, uint256 value) public returns (bool) {\r\n        require(enableTransfer == true);\r\n        return super.approve(spender,value);\r\n    }\r\n\r\n    function() external payable {\r\n        buytoken();\r\n    }\r\n}",
  "sourcePath": "C:\\Users\\Angelo\\Desktop\\TWTD_ico\\contracts\\ACcoin.sol",
  "compiler": {
    "name": "solc",
    "version": "0.4.24+commit.e67f0147.Emscripten.clang"
  },
  "schemaVersion": "2.0.1",
  "updatedAt": "2018-08-04T02:37:25.724Z"
}